{
  "_format": "hh-sol-artifact-1",
  "contractName": "DeviceFactory",
  "sourceName": "contracts/DeviceFactory.sol",
  "abi": [
    {
      "anonymous": false,
      "inputs": [
        {
          "indexed": true,
          "internalType": "address",
          "name": "previousOwner",
          "type": "address"
        },
        {
          "indexed": true,
          "internalType": "address",
          "name": "newOwner",
          "type": "address"
        }
      ],
      "name": "OwnershipTransferred",
      "type": "event"
    },
    {
      "anonymous": false,
      "inputs": [
        {
          "components": [
            {
              "internalType": "string",
              "name": "macAddr",
              "type": "string"
            },
            {
              "internalType": "address",
              "name": "owner",
              "type": "address"
            },
            {
              "internalType": "uint256",
              "name": "tokenBalance",
              "type": "uint256"
            },
            {
              "internalType": "uint256",
              "name": "regTime",
              "type": "uint256"
            },
            {
              "internalType": "string",
              "name": "merchant",
              "type": "string"
            },
            {
              "internalType": "string",
              "name": "longitude",
              "type": "string"
            },
            {
              "internalType": "string",
              "name": "latitude",
              "type": "string"
            },
            {
              "internalType": "bool",
              "name": "bValid",
              "type": "bool"
            }
          ],
          "indexed": false,
          "internalType": "struct DeviceFactory.DeviceInfo",
          "name": "devInfo",
          "type": "tuple"
        }
      ],
      "name": "onDeviceRegisterSuccess",
      "type": "event"
    },
    {
      "inputs": [],
      "name": "TOKEN_AMOUNT",
      "outputs": [
        {
          "internalType": "uint256",
          "name": "",
          "type": "uint256"
        }
      ],
      "stateMutability": "view",
      "type": "function"
    },
    {
      "inputs": [],
      "name": "TRANSFER_INTERVAL",
      "outputs": [
        {
          "internalType": "uint256",
          "name": "",
          "type": "uint256"
        }
      ],
      "stateMutability": "view",
      "type": "function"
    },
    {
      "inputs": [
        {
          "internalType": "string",
          "name": "",
          "type": "string"
        }
      ],
      "name": "deviceDic",
      "outputs": [
        {
          "internalType": "string",
          "name": "macAddr",
          "type": "string"
        },
        {
          "internalType": "address",
          "name": "owner",
          "type": "address"
        },
        {
          "internalType": "uint256",
          "name": "tokenBalance",
          "type": "uint256"
        },
        {
          "internalType": "uint256",
          "name": "regTime",
          "type": "uint256"
        },
        {
          "internalType": "string",
          "name": "merchant",
          "type": "string"
        },
        {
          "internalType": "string",
          "name": "longitude",
          "type": "string"
        },
        {
          "internalType": "string",
          "name": "latitude",
          "type": "string"
        },
        {
          "internalType": "bool",
          "name": "bValid",
          "type": "bool"
        }
      ],
      "stateMutability": "view",
      "type": "function"
    },
    {
      "inputs": [
        {
          "internalType": "string",
          "name": "macAddress",
          "type": "string"
        }
      ],
      "name": "getDevice",
      "outputs": [
        {
          "components": [
            {
              "internalType": "string",
              "name": "macAddr",
              "type": "string"
            },
            {
              "internalType": "address",
              "name": "owner",
              "type": "address"
            },
            {
              "internalType": "uint256",
              "name": "tokenBalance",
              "type": "uint256"
            },
            {
              "internalType": "uint256",
              "name": "regTime",
              "type": "uint256"
            },
            {
              "internalType": "string",
              "name": "merchant",
              "type": "string"
            },
            {
              "internalType": "string",
              "name": "longitude",
              "type": "string"
            },
            {
              "internalType": "string",
              "name": "latitude",
              "type": "string"
            },
            {
              "internalType": "bool",
              "name": "bValid",
              "type": "bool"
            }
          ],
          "internalType": "struct DeviceFactory.DeviceInfo",
          "name": "",
          "type": "tuple"
        }
      ],
      "stateMutability": "view",
      "type": "function"
    },
    {
      "inputs": [
        {
          "internalType": "uint256",
          "name": "startIdx",
          "type": "uint256"
        }
      ],
      "name": "getDeviceList",
      "outputs": [
        {
          "internalType": "uint256",
          "name": "",
          "type": "uint256"
        },
        {
          "components": [
            {
              "internalType": "string",
              "name": "macAddr",
              "type": "string"
            },
            {
              "internalType": "address",
              "name": "owner",
              "type": "address"
            },
            {
              "internalType": "uint256",
              "name": "tokenBalance",
              "type": "uint256"
            },
            {
              "internalType": "uint256",
              "name": "regTime",
              "type": "uint256"
            },
            {
              "internalType": "string",
              "name": "merchant",
              "type": "string"
            },
            {
              "internalType": "string",
              "name": "longitude",
              "type": "string"
            },
            {
              "internalType": "string",
              "name": "latitude",
              "type": "string"
            },
            {
              "internalType": "bool",
              "name": "bValid",
              "type": "bool"
            }
          ],
          "internalType": "struct DeviceFactory.DeviceInfo[]",
          "name": "",
          "type": "tuple[]"
        }
      ],
      "stateMutability": "view",
      "type": "function"
    },
    {
      "inputs": [
        {
          "internalType": "address",
          "name": "userAddr",
          "type": "address"
        }
      ],
      "name": "getUser",
      "outputs": [
        {
          "components": [
            {
              "internalType": "address",
              "name": "owner",
              "type": "address"
            },
            {
              "internalType": "uint256",
              "name": "tokenBalance",
              "type": "uint256"
            },
            {
              "internalType": "uint256",
              "name": "lastTransferTime",
              "type": "uint256"
            }
          ],
          "internalType": "struct DeviceFactory.UserInfo",
          "name": "",
          "type": "tuple"
        }
      ],
      "stateMutability": "view",
      "type": "function"
    },
    {
      "inputs": [
        {
          "internalType": "uint256",
          "name": "startIdx",
          "type": "uint256"
        }
      ],
      "name": "getUserList",
      "outputs": [
        {
          "internalType": "uint256",
          "name": "",
          "type": "uint256"
        },
        {
          "components": [
            {
              "internalType": "address",
              "name": "owner",
              "type": "address"
            },
            {
              "internalType": "uint256",
              "name": "tokenBalance",
              "type": "uint256"
            },
            {
              "internalType": "uint256",
              "name": "lastTransferTime",
              "type": "uint256"
            }
          ],
          "internalType": "struct DeviceFactory.UserInfo[]",
          "name": "",
          "type": "tuple[]"
        }
      ],
      "stateMutability": "view",
      "type": "function"
    },
    {
      "inputs": [],
      "name": "owner",
      "outputs": [
        {
          "internalType": "address",
          "name": "",
          "type": "address"
        }
      ],
      "stateMutability": "view",
      "type": "function"
    },
    {
      "inputs": [
        {
          "internalType": "string",
          "name": "macAddress",
          "type": "string"
        },
        {
          "internalType": "string",
          "name": "mcName",
          "type": "string"
        },
        {
          "internalType": "string",
          "name": "longTD",
          "type": "string"
        },
        {
          "internalType": "string",
          "name": "latTD",
          "type": "string"
        },
        {
          "internalType": "uint256",
          "name": "initialTokens",
          "type": "uint256"
        },
        {
          "internalType": "address",
          "name": "to",
          "type": "address"
        }
      ],
      "name": "registerDevice",
      "outputs": [],
      "stateMutability": "nonpayable",
      "type": "function"
    },
    {
      "inputs": [],
      "name": "renounceOwnership",
      "outputs": [],
      "stateMutability": "nonpayable",
      "type": "function"
    },
    {
      "inputs": [
        {
          "internalType": "address",
          "name": "newOwner",
          "type": "address"
        }
      ],
      "name": "transferOwnership",
      "outputs": [],
      "stateMutability": "nonpayable",
      "type": "function"
    },
    {
      "inputs": [
        {
          "internalType": "string",
          "name": "macAddress",
          "type": "string"
        },
        {
          "internalType": "address",
          "name": "to",
          "type": "address"
        }
      ],
      "name": "transferTokens",
      "outputs": [],
      "stateMutability": "nonpayable",
      "type": "function"
    },
    {
      "inputs": [
        {
          "internalType": "address",
          "name": "",
          "type": "address"
        }
      ],
      "name": "userTokenDic",
      "outputs": [
        {
          "internalType": "address",
          "name": "owner",
          "type": "address"
        },
        {
          "internalType": "uint256",
          "name": "tokenBalance",
          "type": "uint256"
        },
        {
          "internalType": "uint256",
          "name": "lastTransferTime",
          "type": "uint256"
        }
      ],
      "stateMutability": "view",
      "type": "function"
    },
    {
      "inputs": [],
      "name": "withdrawTokens",
      "outputs": [],
      "stateMutability": "nonpayable",
      "type": "function"
    }
  ],
  "bytecode": "0x60806040523480156200001157600080fd5b5062000032620000266200003860201b60201c565b6200004060201b60201c565b62000104565b600033905090565b60008060009054906101000a900473ffffffffffffffffffffffffffffffffffffffff169050816000806101000a81548173ffffffffffffffffffffffffffffffffffffffff021916908373ffffffffffffffffffffffffffffffffffffffff1602179055508173ffffffffffffffffffffffffffffffffffffffff168173ffffffffffffffffffffffffffffffffffffffff167f8be0079c531659141344cd1fd0a4f28419497f9722a3daafe3b4186f6b6457e060405160405180910390a35050565b612dba80620001146000396000f3fe608060405234801561001057600080fd5b50600436106100ea5760003560e01c80638d8f2adb1161008c578063a992be0611610066578063a992be061461023d578063b71a034614610274578063f2fde38b146102a4578063fe8ae5d0146102c0576100ea565b80638d8f2adb146101e45780638da5cb5b146101ee57806391bbec1a1461020c576100ea565b806358dc04e8116100c857806358dc04e81461015d5780636f77926b14610179578063715018a6146101a9578063874c691d146101b3576100ea565b8063048a1a9d146100ef5780630c9b46c91461010d5780633ce782f41461013f575b600080fd5b6100f76102dc565b6040516101049190611b45565b60405180910390f35b61012760048036038101906101229190611bd2565b6102e1565b60405161013693929190611c0e565b60405180910390f35b61014761032b565b6040516101549190611b45565b60405180910390f35b61017760048036038101906101729190611d8b565b610330565b005b610193600480360381019061018e9190611bd2565b6106d7565b6040516101a09190611e47565b60405180910390f35b6101b161079a565b005b6101cd60048036038101906101c89190611e8e565b6107ae565b6040516101db9291906120e5565b60405180910390f35b6101ec610bf3565b005b6101f6610d77565b6040516102039190612115565b60405180910390f35b61022660048036038101906102219190611e8e565b610da0565b604051610234929190612221565b60405180910390f35b61025760048036038101906102529190612251565b610fc3565b60405161026b9897969594939291906122f3565b60405180910390f35b61028e60048036038101906102899190612251565b61126e565b60405161029b9190612452565b60405180910390f35b6102be60048036038101906102b99190611bd2565b611574565b005b6102da60048036038101906102d59190612474565b6115f8565b005b600a81565b60026020528060005260406000206000915090508060000160009054906101000a900473ffffffffffffffffffffffffffffffffffffffff16908060010154908060020154905083565b600581565b6103386118ab565b600073ffffffffffffffffffffffffffffffffffffffff16600260008373ffffffffffffffffffffffffffffffffffffffff1673ffffffffffffffffffffffffffffffffffffffff16815260200190815260200160002060000160009054906101000a900473ffffffffffffffffffffffffffffffffffffffff1673ffffffffffffffffffffffffffffffffffffffff1614156105035760405180606001604052808273ffffffffffffffffffffffffffffffffffffffff168152602001600081526020016000815250600260008373ffffffffffffffffffffffffffffffffffffffff1673ffffffffffffffffffffffffffffffffffffffff16815260200190815260200160002060008201518160000160006101000a81548173ffffffffffffffffffffffffffffffffffffffff021916908373ffffffffffffffffffffffffffffffffffffffff16021790555060208201518160010155604082015181600201559050506004819080600181540180825580915050600190039060005260206000200160009091909190916101000a81548173ffffffffffffffffffffffffffffffffffffffff021916908373ffffffffffffffffffffffffffffffffffffffff1602179055505b6005600260008373ffffffffffffffffffffffffffffffffffffffff1673ffffffffffffffffffffffffffffffffffffffff1681526020019081526020016000206002015461055291906125a0565b421015610594576040517f08c379a000000000000000000000000000000000000000000000000000000000815260040161058b90612642565b60405180910390fd5b600a6001836040516105a6919061269e565b90815260200160405180910390206002015410156105f9576040517f08c379a00000000000000000000000000000000000000000000000000000000081526004016105f090612701565b60405180910390fd5b600a60018360405161060b919061269e565b9081526020016040518091039020600201600082825461062b9190612721565b92505081905550600a600260008373ffffffffffffffffffffffffffffffffffffffff1673ffffffffffffffffffffffffffffffffffffffff168152602001908152602001600020600101600082825461068591906125a0565b9250508190555042600260008373ffffffffffffffffffffffffffffffffffffffff1673ffffffffffffffffffffffffffffffffffffffff168152602001908152602001600020600201819055505050565b6106df6119f5565b600260008373ffffffffffffffffffffffffffffffffffffffff1673ffffffffffffffffffffffffffffffffffffffff1681526020019081526020016000206040518060600160405290816000820160009054906101000a900473ffffffffffffffffffffffffffffffffffffffff1673ffffffffffffffffffffffffffffffffffffffff1673ffffffffffffffffffffffffffffffffffffffff168152602001600182015481526020016002820154815250509050919050565b6107a26118ab565b6107ac6000611929565b565b600060606000600a846107c191906125a0565b905060038054905081116107d557806107dc565b6003805490505b905080841115610821576040517f08c379a0000000000000000000000000000000000000000000000000000000008152600401610818906127a1565b60405180910390fd5b6000848261082f9190612721565b67ffffffffffffffff81111561084857610847611c60565b5b60405190808252806020026020018201604052801561088157816020015b61086e611a2c565b8152602001906001900390816108665790505b50905060008590505b82811015610be0576001600382815481106108a8576108a76127c1565b5b906000526020600020016040516108bf91906128e5565b9081526020016040518091039020604051806101000160405290816000820180546108e99061281f565b80601f01602080910402602001604051908101604052809291908181526020018280546109159061281f565b80156109625780601f1061093757610100808354040283529160200191610962565b820191906000526020600020905b81548152906001019060200180831161094557829003601f168201915b505050505081526020016001820160009054906101000a900473ffffffffffffffffffffffffffffffffffffffff1673ffffffffffffffffffffffffffffffffffffffff1673ffffffffffffffffffffffffffffffffffffffff16815260200160028201548152602001600382015481526020016004820180546109e59061281f565b80601f0160208091040260200160405190810160405280929190818152602001828054610a119061281f565b8015610a5e5780601f10610a3357610100808354040283529160200191610a5e565b820191906000526020600020905b815481529060010190602001808311610a4157829003601f168201915b50505050508152602001600582018054610a779061281f565b80601f0160208091040260200160405190810160405280929190818152602001828054610aa39061281f565b8015610af05780601f10610ac557610100808354040283529160200191610af0565b820191906000526020600020905b815481529060010190602001808311610ad357829003601f168201915b50505050508152602001600682018054610b099061281f565b80601f0160208091040260200160405190810160405280929190818152602001828054610b359061281f565b8015610b825780601f10610b5757610100808354040283529160200191610b82565b820191906000526020600020905b815481529060010190602001808311610b6557829003601f168201915b505050505081526020016007820160009054906101000a900460ff161515151581525050828783610bb39190612721565b81518110610bc457610bc36127c1565b5b602002602001018190525080610bd9906128fc565b905061088a565b5060038054905081935093505050915091565b6000600260003373ffffffffffffffffffffffffffffffffffffffff1673ffffffffffffffffffffffffffffffffffffffff16815260200190815260200160002060010154905060008111610c7d576040517f08c379a0000000000000000000000000000000000000000000000000000000008152600401610c7490612991565b60405180910390fd5b6000600260003373ffffffffffffffffffffffffffffffffffffffff1673ffffffffffffffffffffffffffffffffffffffff1681526020019081526020016000206001018190555060003373ffffffffffffffffffffffffffffffffffffffff16600260003373ffffffffffffffffffffffffffffffffffffffff1673ffffffffffffffffffffffffffffffffffffffff16815260200190815260200160002060010154604051610d2d906129e2565b60006040518083038185875af1925050503d8060008114610d6a576040519150601f19603f3d011682016040523d82523d6000602084013e610d6f565b606091505b505090505050565b60008060009054906101000a900473ffffffffffffffffffffffffffffffffffffffff16905090565b600060606000600a84610db391906125a0565b90506004805490508111610dc75780610dce565b6004805490505b905080841115610e13576040517f08c379a0000000000000000000000000000000000000000000000000000000008152600401610e0a906127a1565b60405180910390fd5b60008482610e219190612721565b67ffffffffffffffff811115610e3a57610e39611c60565b5b604051908082528060200260200182016040528015610e7357816020015b610e606119f5565b815260200190600190039081610e585790505b50905060008590505b82811015610fb0576002600060048381548110610e9c57610e9b6127c1565b5b9060005260206000200160009054906101000a900473ffffffffffffffffffffffffffffffffffffffff1673ffffffffffffffffffffffffffffffffffffffff1673ffffffffffffffffffffffffffffffffffffffff1681526020019081526020016000206040518060600160405290816000820160009054906101000a900473ffffffffffffffffffffffffffffffffffffffff1673ffffffffffffffffffffffffffffffffffffffff1673ffffffffffffffffffffffffffffffffffffffff16815260200160018201548152602001600282015481525050828783610f839190612721565b81518110610f9457610f936127c1565b5b602002602001018190525080610fa9906128fc565b9050610e7c565b5060048054905081935093505050915091565b600181805160208101820180518482526020830160208501208183528095505050505050600091509050806000018054610ffc9061281f565b80601f01602080910402602001604051908101604052809291908181526020018280546110289061281f565b80156110755780601f1061104a57610100808354040283529160200191611075565b820191906000526020600020905b81548152906001019060200180831161105857829003601f168201915b5050505050908060010160009054906101000a900473ffffffffffffffffffffffffffffffffffffffff16908060020154908060030154908060040180546110bc9061281f565b80601f01602080910402602001604051908101604052809291908181526020018280546110e89061281f565b80156111355780601f1061110a57610100808354040283529160200191611135565b820191906000526020600020905b81548152906001019060200180831161111857829003601f168201915b50505050509080600501805461114a9061281f565b80601f01602080910402602001604051908101604052809291908181526020018280546111769061281f565b80156111c35780601f10611198576101008083540402835291602001916111c3565b820191906000526020600020905b8154815290600101906020018083116111a657829003601f168201915b5050505050908060060180546111d89061281f565b80601f01602080910402602001604051908101604052809291908181526020018280546112049061281f565b80156112515780601f1061122657610100808354040283529160200191611251565b820191906000526020600020905b81548152906001019060200180831161123457829003601f168201915b5050505050908060070160009054906101000a900460ff16905088565b611276611a2c565b600182604051611286919061269e565b9081526020016040518091039020604051806101000160405290816000820180546112b09061281f565b80601f01602080910402602001604051908101604052809291908181526020018280546112dc9061281f565b80156113295780601f106112fe57610100808354040283529160200191611329565b820191906000526020600020905b81548152906001019060200180831161130c57829003601f168201915b505050505081526020016001820160009054906101000a900473ffffffffffffffffffffffffffffffffffffffff1673ffffffffffffffffffffffffffffffffffffffff1673ffffffffffffffffffffffffffffffffffffffff16815260200160028201548152602001600382015481526020016004820180546113ac9061281f565b80601f01602080910402602001604051908101604052809291908181526020018280546113d89061281f565b80156114255780601f106113fa57610100808354040283529160200191611425565b820191906000526020600020905b81548152906001019060200180831161140857829003601f168201915b5050505050815260200160058201805461143e9061281f565b80601f016020809104026020016040519081016040528092919081815260200182805461146a9061281f565b80156114b75780601f1061148c576101008083540402835291602001916114b7565b820191906000526020600020905b81548152906001019060200180831161149a57829003601f168201915b505050505081526020016006820180546114d09061281f565b80601f01602080910402602001604051908101604052809291908181526020018280546114fc9061281f565b80156115495780601f1061151e57610100808354040283529160200191611549565b820191906000526020600020905b81548152906001019060200180831161152c57829003601f168201915b505050505081526020016007820160009054906101000a900460ff1615151515815250509050919050565b61157c6118ab565b600073ffffffffffffffffffffffffffffffffffffffff168173ffffffffffffffffffffffffffffffffffffffff1614156115ec576040517f08c379a00000000000000000000000000000000000000000000000000000000081526004016115e390612a69565b60405180910390fd5b6115f581611929565b50565b6116006118ab565b600073ffffffffffffffffffffffffffffffffffffffff16600187604051611628919061269e565b908152602001604051809103902060010160009054906101000a900473ffffffffffffffffffffffffffffffffffffffff1673ffffffffffffffffffffffffffffffffffffffff16146116b0576040517f08c379a00000000000000000000000000000000000000000000000000000000081526004016116a790612ad5565b60405180910390fd5b6040518061010001604052808781526020018273ffffffffffffffffffffffffffffffffffffffff16815260200183815260200142815260200186815260200185815260200184815260200160011515815250600187604051611713919061269e565b9081526020016040518091039020600082015181600001908051906020019061173d929190611a89565b5060208201518160010160006101000a81548173ffffffffffffffffffffffffffffffffffffffff021916908373ffffffffffffffffffffffffffffffffffffffff160217905550604082015181600201556060820151816003015560808201518160040190805190602001906117b5929190611a89565b5060a08201518160050190805190602001906117d2929190611a89565b5060c08201518160060190805190602001906117ef929190611a89565b5060e08201518160070160006101000a81548160ff02191690831515021790555090505060038690806001815401808255809150506001900390600052602060002001600090919091909150908051906020019061184e929190611a89565b507fcc017e98c68153027b1a26f6232171af127eb16f5214f32ad41e4a1bc23b8416600187604051611880919061269e565b908152602001604051809103902060405161189b9190612cf6565b60405180910390a1505050505050565b6118b36119ed565b73ffffffffffffffffffffffffffffffffffffffff166118d1610d77565b73ffffffffffffffffffffffffffffffffffffffff1614611927576040517f08c379a000000000000000000000000000000000000000000000000000000000815260040161191e90612d64565b60405180910390fd5b565b60008060009054906101000a900473ffffffffffffffffffffffffffffffffffffffff169050816000806101000a81548173ffffffffffffffffffffffffffffffffffffffff021916908373ffffffffffffffffffffffffffffffffffffffff1602179055508173ffffffffffffffffffffffffffffffffffffffff168173ffffffffffffffffffffffffffffffffffffffff167f8be0079c531659141344cd1fd0a4f28419497f9722a3daafe3b4186f6b6457e060405160405180910390a35050565b600033905090565b6040518060600160405280600073ffffffffffffffffffffffffffffffffffffffff16815260200160008152602001600081525090565b60405180610100016040528060608152602001600073ffffffffffffffffffffffffffffffffffffffff16815260200160008152602001600081526020016060815260200160608152602001606081526020016000151581525090565b828054611a959061281f565b90600052602060002090601f016020900481019282611ab75760008555611afe565b82601f10611ad057805160ff1916838001178555611afe565b82800160010185558215611afe579182015b82811115611afd578251825591602001919060010190611ae2565b5b509050611b0b9190611b0f565b5090565b5b80821115611b28576000816000905550600101611b10565b5090565b6000819050919050565b611b3f81611b2c565b82525050565b6000602082019050611b5a6000830184611b36565b92915050565b6000604051905090565b600080fd5b600080fd5b600073ffffffffffffffffffffffffffffffffffffffff82169050919050565b6000611b9f82611b74565b9050919050565b611baf81611b94565b8114611bba57600080fd5b50565b600081359050611bcc81611ba6565b92915050565b600060208284031215611be857611be7611b6a565b5b6000611bf684828501611bbd565b91505092915050565b611c0881611b94565b82525050565b6000606082019050611c236000830186611bff565b611c306020830185611b36565b611c3d6040830184611b36565b949350505050565b600080fd5b600080fd5b6000601f19601f8301169050919050565b7f4e487b7100000000000000000000000000000000000000000000000000000000600052604160045260246000fd5b611c9882611c4f565b810181811067ffffffffffffffff82111715611cb757611cb6611c60565b5b80604052505050565b6000611cca611b60565b9050611cd68282611c8f565b919050565b600067ffffffffffffffff821115611cf657611cf5611c60565b5b611cff82611c4f565b9050602081019050919050565b82818337600083830152505050565b6000611d2e611d2984611cdb565b611cc0565b905082815260208101848484011115611d4a57611d49611c4a565b5b611d55848285611d0c565b509392505050565b600082601f830112611d7257611d71611c45565b5b8135611d82848260208601611d1b565b91505092915050565b60008060408385031215611da257611da1611b6a565b5b600083013567ffffffffffffffff811115611dc057611dbf611b6f565b5b611dcc85828601611d5d565b9250506020611ddd85828601611bbd565b9150509250929050565b611df081611b94565b82525050565b611dff81611b2c565b82525050565b606082016000820151611e1b6000850182611de7565b506020820151611e2e6020850182611df6565b506040820151611e416040850182611df6565b50505050565b6000606082019050611e5c6000830184611e05565b92915050565b611e6b81611b2c565b8114611e7657600080fd5b50565b600081359050611e8881611e62565b92915050565b600060208284031215611ea457611ea3611b6a565b5b6000611eb284828501611e79565b91505092915050565b600081519050919050565b600082825260208201905092915050565b6000819050602082019050919050565b600081519050919050565b600082825260208201905092915050565b60005b83811015611f21578082015181840152602081019050611f06565b83811115611f30576000848401525b50505050565b6000611f4182611ee7565b611f4b8185611ef2565b9350611f5b818560208601611f03565b611f6481611c4f565b840191505092915050565b60008115159050919050565b611f8481611f6f565b82525050565b6000610100830160008301518482036000860152611fa88282611f36565b9150506020830151611fbd6020860182611de7565b506040830151611fd06040860182611df6565b506060830151611fe36060860182611df6565b5060808301518482036080860152611ffb8282611f36565b91505060a083015184820360a08601526120158282611f36565b91505060c083015184820360c086015261202f8282611f36565b91505060e083015161204460e0860182611f7b565b508091505092915050565b600061205b8383611f8a565b905092915050565b6000602082019050919050565b600061207b82611ebb565b6120858185611ec6565b93508360208202850161209785611ed7565b8060005b858110156120d357848403895281516120b4858261204f565b94506120bf83612063565b925060208a0199505060018101905061209b565b50829750879550505050505092915050565b60006040820190506120fa6000830185611b36565b818103602083015261210c8184612070565b90509392505050565b600060208201905061212a6000830184611bff565b92915050565b600081519050919050565b600082825260208201905092915050565b6000819050602082019050919050565b6060820160008201516121726000850182611de7565b5060208201516121856020850182611df6565b5060408201516121986040850182611df6565b50505050565b60006121aa838361215c565b60608301905092915050565b6000602082019050919050565b60006121ce82612130565b6121d8818561213b565b93506121e38361214c565b8060005b838110156122145781516121fb888261219e565b9750612206836121b6565b9250506001810190506121e7565b5085935050505092915050565b60006040820190506122366000830185611b36565b818103602083015261224881846121c3565b90509392505050565b60006020828403121561226757612266611b6a565b5b600082013567ffffffffffffffff81111561228557612284611b6f565b5b61229184828501611d5d565b91505092915050565b600082825260208201905092915050565b60006122b682611ee7565b6122c0818561229a565b93506122d0818560208601611f03565b6122d981611c4f565b840191505092915050565b6122ed81611f6f565b82525050565b600061010082019050818103600083015261230e818b6122ab565b905061231d602083018a611bff565b61232a6040830189611b36565b6123376060830188611b36565b818103608083015261234981876122ab565b905081810360a083015261235d81866122ab565b905081810360c083015261237181856122ab565b905061238060e08301846122e4565b9998505050505050505050565b60006101008301600083015184820360008601526123ab8282611f36565b91505060208301516123c06020860182611de7565b5060408301516123d36040860182611df6565b5060608301516123e66060860182611df6565b50608083015184820360808601526123fe8282611f36565b91505060a083015184820360a08601526124188282611f36565b91505060c083015184820360c08601526124328282611f36565b91505060e083015161244760e0860182611f7b565b508091505092915050565b6000602082019050818103600083015261246c818461238d565b905092915050565b60008060008060008060c0878903121561249157612490611b6a565b5b600087013567ffffffffffffffff8111156124af576124ae611b6f565b5b6124bb89828a01611d5d565b965050602087013567ffffffffffffffff8111156124dc576124db611b6f565b5b6124e889828a01611d5d565b955050604087013567ffffffffffffffff81111561250957612508611b6f565b5b61251589828a01611d5d565b945050606087013567ffffffffffffffff81111561253657612535611b6f565b5b61254289828a01611d5d565b935050608061255389828a01611e79565b92505060a061256489828a01611bbd565b9150509295509295509295565b7f4e487b7100000000000000000000000000000000000000000000000000000000600052601160045260246000fd5b60006125ab82611b2c565b91506125b683611b2c565b9250827fffffffffffffffffffffffffffffffffffffffffffffffffffffffffffffffff038211156125eb576125ea612571565b5b828201905092915050565b7f5472616e7366657220696e74657276616c206e6f742072656163686564000000600082015250565b600061262c601d8361229a565b9150612637826125f6565b602082019050919050565b6000602082019050818103600083015261265b8161261f565b9050919050565b600081905092915050565b600061267882611ee7565b6126828185612662565b9350612692818560208601611f03565b80840191505092915050565b60006126aa828461266d565b915081905092915050565b7f496e73756666696369656e7420746f6b656e7300000000000000000000000000600082015250565b60006126eb60138361229a565b91506126f6826126b5565b602082019050919050565b6000602082019050818103600083015261271a816126de565b9050919050565b600061272c82611b2c565b915061273783611b2c565b92508282101561274a57612749612571565b5b828203905092915050565b7f696e76616c696420696e64657800000000000000000000000000000000000000600082015250565b600061278b600d8361229a565b915061279682612755565b602082019050919050565b600060208201905081810360008301526127ba8161277e565b9050919050565b7f4e487b7100000000000000000000000000000000000000000000000000000000600052603260045260246000fd5b7f4e487b7100000000000000000000000000000000000000000000000000000000600052602260045260246000fd5b6000600282049050600182168061283757607f821691505b6020821081141561284b5761284a6127f0565b5b50919050565b60008190508160005260206000209050919050565b600081546128738161281f565b61287d8186612662565b9450600182166000811461289857600181146128a9576128dc565b60ff198316865281860193506128dc565b6128b285612851565b60005b838110156128d4578154818901526001820191506020810190506128b5565b838801955050505b50505092915050565b60006128f18284612866565b915081905092915050565b600061290782611b2c565b91507fffffffffffffffffffffffffffffffffffffffffffffffffffffffffffffffff82141561293a57612939612571565b5b600182019050919050565b7f4e6f20746f6b656e7320746f2077697468647261770000000000000000000000600082015250565b600061297b60158361229a565b915061298682612945565b602082019050919050565b600060208201905081810360008301526129aa8161296e565b9050919050565b600081905092915050565b50565b60006129cc6000836129b1565b91506129d7826129bc565b600082019050919050565b60006129ed826129bf565b9150819050919050565b7f4f776e61626c653a206e6577206f776e657220697320746865207a65726f206160008201527f6464726573730000000000000000000000000000000000000000000000000000602082015250565b6000612a5360268361229a565b9150612a5e826129f7565b604082019050919050565b60006020820190508181036000830152612a8281612a46565b9050919050565b7f44657669636520616c7265616479207265676973746572656400000000000000600082015250565b6000612abf60198361229a565b9150612aca82612a89565b602082019050919050565b60006020820190508181036000830152612aee81612ab2565b9050919050565b60008154612b028161281f565b612b0c8186611ef2565b94506001821660008114612b275760018114612b3957612b6c565b60ff1983168652602086019350612b6c565b612b4285612851565b60005b83811015612b6457815481890152600182019150602081019050612b45565b808801955050505b50505092915050565b60008160001c9050919050565b600073ffffffffffffffffffffffffffffffffffffffff82169050919050565b6000612bb5612bb083612b75565b612b82565b9050919050565b6000819050919050565b6000612bd9612bd483612b75565b612bbc565b9050919050565b600060ff82169050919050565b6000612c00612bfb83612b75565b612be0565b9050919050565b6000610100830160008084018583036000870152612c258382612af5565b92505060018401549050612c3881612ba2565b612c456020870182611de7565b5060028401549050612c5681612bc6565b612c636040870182611df6565b5060038401549050612c7481612bc6565b612c816060870182611df6565b50600484018583036080870152612c988382612af5565b9250506005840185830360a0870152612cb18382612af5565b9250506006840185830360c0870152612cca8382612af5565b92505060078401549050612cdd81612bed565b612cea60e0870182611f7b565b50819250505092915050565b60006020820190508181036000830152612d108184612c07565b905092915050565b7f4f776e61626c653a2063616c6c6572206973206e6f7420746865206f776e6572600082015250565b6000612d4e60208361229a565b9150612d5982612d18565b602082019050919050565b60006020820190508181036000830152612d7d81612d41565b905091905056fea2646970667358221220e13ba85c90d59273d8f892761f16890f3ae5123ca8efe261e57db55ea825866664736f6c63430008090033",
  "linkReferences": {},
  "deployedLinkReferences": {}
}