{
  "_format": "hh-sol-artifact-1",
  "contractName": "DeviceFactory",
  "sourceName": "contracts/DeviceFactory.sol",
  "abi": [
    {
      "anonymous": false,
      "inputs": [
        {
          "indexed": true,
          "internalType": "address",
          "name": "previousOwner",
          "type": "address"
        },
        {
          "indexed": true,
          "internalType": "address",
          "name": "newOwner",
          "type": "address"
        }
      ],
      "name": "OwnershipTransferred",
      "type": "event"
    },
    {
      "anonymous": false,
      "inputs": [
        {
          "components": [
            {
              "internalType": "string",
              "name": "macAddr",
              "type": "string"
            },
            {
              "internalType": "address",
              "name": "owner",
              "type": "address"
            },
            {
              "internalType": "uint256",
              "name": "tokenBalance",
              "type": "uint256"
            },
            {
              "internalType": "uint256",
              "name": "regTime",
              "type": "uint256"
            },
            {
              "internalType": "string",
              "name": "merchant",
              "type": "string"
            },
            {
              "internalType": "string",
              "name": "longitude",
              "type": "string"
            },
            {
              "internalType": "string",
              "name": "latitude",
              "type": "string"
            },
            {
              "internalType": "bool",
              "name": "bValid",
              "type": "bool"
            }
          ],
          "indexed": false,
          "internalType": "struct DeviceFactory.DeviceInfo",
          "name": "devInfo",
          "type": "tuple"
        }
      ],
      "name": "onDeviceRegisterSuccess",
      "type": "event"
    },
    {
      "inputs": [],
      "name": "TOKEN_AMOUNT",
      "outputs": [
        {
          "internalType": "uint256",
          "name": "",
          "type": "uint256"
        }
      ],
      "stateMutability": "view",
      "type": "function"
    },
    {
      "inputs": [],
      "name": "TRANSFER_INTERVAL",
      "outputs": [
        {
          "internalType": "uint256",
          "name": "",
          "type": "uint256"
        }
      ],
      "stateMutability": "view",
      "type": "function"
    },
    {
      "inputs": [
        {
          "internalType": "string",
          "name": "",
          "type": "string"
        }
      ],
      "name": "deviceDic",
      "outputs": [
        {
          "internalType": "string",
          "name": "macAddr",
          "type": "string"
        },
        {
          "internalType": "address",
          "name": "owner",
          "type": "address"
        },
        {
          "internalType": "uint256",
          "name": "tokenBalance",
          "type": "uint256"
        },
        {
          "internalType": "uint256",
          "name": "regTime",
          "type": "uint256"
        },
        {
          "internalType": "string",
          "name": "merchant",
          "type": "string"
        },
        {
          "internalType": "string",
          "name": "longitude",
          "type": "string"
        },
        {
          "internalType": "string",
          "name": "latitude",
          "type": "string"
        },
        {
          "internalType": "bool",
          "name": "bValid",
          "type": "bool"
        }
      ],
      "stateMutability": "view",
      "type": "function"
    },
    {
      "inputs": [
        {
          "internalType": "string",
          "name": "macAddress",
          "type": "string"
        }
      ],
      "name": "getDevice",
      "outputs": [
        {
          "components": [
            {
              "internalType": "string",
              "name": "macAddr",
              "type": "string"
            },
            {
              "internalType": "address",
              "name": "owner",
              "type": "address"
            },
            {
              "internalType": "uint256",
              "name": "tokenBalance",
              "type": "uint256"
            },
            {
              "internalType": "uint256",
              "name": "regTime",
              "type": "uint256"
            },
            {
              "internalType": "string",
              "name": "merchant",
              "type": "string"
            },
            {
              "internalType": "string",
              "name": "longitude",
              "type": "string"
            },
            {
              "internalType": "string",
              "name": "latitude",
              "type": "string"
            },
            {
              "internalType": "bool",
              "name": "bValid",
              "type": "bool"
            }
          ],
          "internalType": "struct DeviceFactory.DeviceInfo",
          "name": "",
          "type": "tuple"
        }
      ],
      "stateMutability": "view",
      "type": "function"
    },
    {
      "inputs": [
        {
          "internalType": "uint256",
          "name": "startIdx",
          "type": "uint256"
        }
      ],
      "name": "getDeviceList",
      "outputs": [
        {
          "internalType": "uint256",
          "name": "",
          "type": "uint256"
        },
        {
          "components": [
            {
              "internalType": "string",
              "name": "macAddr",
              "type": "string"
            },
            {
              "internalType": "address",
              "name": "owner",
              "type": "address"
            },
            {
              "internalType": "uint256",
              "name": "tokenBalance",
              "type": "uint256"
            },
            {
              "internalType": "uint256",
              "name": "regTime",
              "type": "uint256"
            },
            {
              "internalType": "string",
              "name": "merchant",
              "type": "string"
            },
            {
              "internalType": "string",
              "name": "longitude",
              "type": "string"
            },
            {
              "internalType": "string",
              "name": "latitude",
              "type": "string"
            },
            {
              "internalType": "bool",
              "name": "bValid",
              "type": "bool"
            }
          ],
          "internalType": "struct DeviceFactory.DeviceInfo[]",
          "name": "",
          "type": "tuple[]"
        }
      ],
      "stateMutability": "view",
      "type": "function"
    },
    {
      "inputs": [
        {
          "internalType": "address",
          "name": "userAddr",
          "type": "address"
        }
      ],
      "name": "getUser",
      "outputs": [
        {
          "components": [
            {
              "internalType": "address",
              "name": "owner",
              "type": "address"
            },
            {
              "internalType": "uint256",
              "name": "tokenBalance",
              "type": "uint256"
            },
            {
              "internalType": "uint256",
              "name": "lastTransferTime",
              "type": "uint256"
            }
          ],
          "internalType": "struct DeviceFactory.UserInfo",
          "name": "",
          "type": "tuple"
        }
      ],
      "stateMutability": "view",
      "type": "function"
    },
    {
      "inputs": [
        {
          "internalType": "uint256",
          "name": "startIdx",
          "type": "uint256"
        }
      ],
      "name": "getUserList",
      "outputs": [
        {
          "internalType": "uint256",
          "name": "",
          "type": "uint256"
        },
        {
          "components": [
            {
              "internalType": "address",
              "name": "owner",
              "type": "address"
            },
            {
              "internalType": "uint256",
              "name": "tokenBalance",
              "type": "uint256"
            },
            {
              "internalType": "uint256",
              "name": "lastTransferTime",
              "type": "uint256"
            }
          ],
          "internalType": "struct DeviceFactory.UserInfo[]",
          "name": "",
          "type": "tuple[]"
        }
      ],
      "stateMutability": "view",
      "type": "function"
    },
    {
      "inputs": [],
      "name": "owner",
      "outputs": [
        {
          "internalType": "address",
          "name": "",
          "type": "address"
        }
      ],
      "stateMutability": "view",
      "type": "function"
    },
    {
      "inputs": [
        {
          "internalType": "string",
          "name": "macAddress",
          "type": "string"
        },
        {
          "internalType": "string",
          "name": "mcName",
          "type": "string"
        },
        {
          "internalType": "string",
          "name": "longTD",
          "type": "string"
        },
        {
          "internalType": "string",
          "name": "latTD",
          "type": "string"
        },
        {
          "internalType": "uint256",
          "name": "initialTokens",
          "type": "uint256"
        },
        {
          "internalType": "address",
          "name": "to",
          "type": "address"
        }
      ],
      "name": "registerDevice",
      "outputs": [],
      "stateMutability": "nonpayable",
      "type": "function"
    },
    {
      "inputs": [],
      "name": "renounceOwnership",
      "outputs": [],
      "stateMutability": "nonpayable",
      "type": "function"
    },
    {
      "inputs": [
        {
          "internalType": "address",
          "name": "newOwner",
          "type": "address"
        }
      ],
      "name": "transferOwnership",
      "outputs": [],
      "stateMutability": "nonpayable",
      "type": "function"
    },
    {
      "inputs": [
        {
          "internalType": "string",
          "name": "macAddress",
          "type": "string"
        },
        {
          "internalType": "address",
          "name": "to",
          "type": "address"
        }
      ],
      "name": "transferTokens",
      "outputs": [],
      "stateMutability": "nonpayable",
      "type": "function"
    },
    {
      "inputs": [
        {
          "internalType": "address",
          "name": "",
          "type": "address"
        }
      ],
      "name": "userTokenDic",
      "outputs": [
        {
          "internalType": "address",
          "name": "owner",
          "type": "address"
        },
        {
          "internalType": "uint256",
          "name": "tokenBalance",
          "type": "uint256"
        },
        {
          "internalType": "uint256",
          "name": "lastTransferTime",
          "type": "uint256"
        }
      ],
      "stateMutability": "view",
      "type": "function"
    },
    {
      "inputs": [],
      "name": "withdrawTokens",
      "outputs": [],
      "stateMutability": "nonpayable",
      "type": "function"
    }
  ],
  "bytecode": "0x608060405234801561001057600080fd5b5061001a3361001f565b61006f565b600080546001600160a01b038381166001600160a01b0319831681178455604051919092169283917f8be0079c531659141344cd1fd0a4f28419497f9722a3daafe3b4186f6b6457e09190a35050565b611c818061007e6000396000f3fe608060405234801561001057600080fd5b50600436106100ea5760003560e01c80638d8f2adb1161008c578063a992be0611610066578063a992be0614610231578063b71a034614610258578063f2fde38b14610278578063fe8ae5d01461028b57600080fd5b80638d8f2adb146101ed5780638da5cb5b146101f557806391bbec1a1461021057600080fd5b806358dc04e8116100c857806358dc04e8146101715780636f77926b14610186578063715018a6146101c4578063874c691d146101cc57600080fd5b8063048a1a9d146100ef5780630c9b46c91461010a5780633ce782f414610169575b600080fd5b6100f7600a81565b6040519081526020015b60405180910390f35b610144610118366004611534565b60026020819052600091825260409091208054600182015491909201546001600160a01b039092169183565b604080516001600160a01b039094168452602084019290925290820152606001610101565b6100f7600581565b61018461017f3660046115f9565b61029e565b005b610199610194366004611534565b6104c7565b6040805182516001600160a01b03168152602080840151908201529181015190820152606001610101565b610184610536565b6101df6101da366004611647565b61054a565b60405161010192919061176d565b61018461092b565b6000546040516001600160a01b039091168152602001610101565b61022361021e366004611647565b6109e3565b6040516101019291906117d7565b61024461023f36600461184b565b610b83565b604051610101989796959493929190611888565b61026b61026636600461184b565b610e00565b604051610101919061190d565b610184610286366004611534565b6110bc565b610184610299366004611920565b611135565b6102a6611385565b6001600160a01b038181166000908152600260205260409020541661035957604080516060810182526001600160a01b03808416808352600060208085018281528587018381528484526002928390529683209551865495166001600160a01b03199586161786555160018087019190915595519401939093556004805494850181559092527f8a35acfbc15ff81a39ae7d344fd709f28e8600b4aa8c65c6b64bfe7fe36bd19b90920180549092161790555b6001600160a01b03811660009081526002602081905260409091200154610382906005906119fc565b4210156103d65760405162461bcd60e51b815260206004820152601d60248201527f5472616e7366657220696e74657276616c206e6f74207265616368656400000060448201526064015b60405180910390fd5b600a6001836040516103e89190611a14565b908152602001604051809103902060020154101561043e5760405162461bcd60e51b8152602060048201526013602482015272496e73756666696369656e7420746f6b656e7360681b60448201526064016103cd565b600a6001836040516104509190611a14565b908152602001604051809103902060020160008282546104709190611a30565b90915550506001600160a01b03811660009081526002602052604081206001018054600a92906104a19084906119fc565b90915550506001600160a01b031660009081526002602081905260409091204291015550565b6104f4604051806060016040528060006001600160a01b0316815260200160008152602001600081525090565b506001600160a01b0390811660009081526002602081815260409283902083516060810185528154909516855260018101549185019190915201549082015290565b61053e611385565b61054860006113df565b565b600060608161055a84600a6119fc565b600354909150811161056c5780610570565b6003545b9050808411156105b25760405162461bcd60e51b815260206004820152600d60248201526c0d2dcecc2d8d2c840d2dcc8caf609b1b60448201526064016103cd565b60006105be8583611a30565b67ffffffffffffffff8111156105d6576105d6611556565b60405190808252806020026020018201604052801561060f57816020015b6105fc61142f565b8152602001906001900390816105f45790505b509050845b8281101561091d5760016003828154811061063157610631611a47565b906000526020600020016040516106489190611a98565b90815260200160405180910390206040518061010001604052908160008201805461067290611a5d565b80601f016020809104026020016040519081016040528092919081815260200182805461069e90611a5d565b80156106eb5780601f106106c0576101008083540402835291602001916106eb565b820191906000526020600020905b8154815290600101906020018083116106ce57829003601f168201915b505050918352505060018201546001600160a01b03166020820152600282015460408201526003820154606082015260048201805460809092019161072f90611a5d565b80601f016020809104026020016040519081016040528092919081815260200182805461075b90611a5d565b80156107a85780601f1061077d576101008083540402835291602001916107a8565b820191906000526020600020905b81548152906001019060200180831161078b57829003601f168201915b505050505081526020016005820180546107c190611a5d565b80601f01602080910402602001604051908101604052809291908181526020018280546107ed90611a5d565b801561083a5780601f1061080f5761010080835404028352916020019161083a565b820191906000526020600020905b81548152906001019060200180831161081d57829003601f168201915b5050505050815260200160068201805461085390611a5d565b80601f016020809104026020016040519081016040528092919081815260200182805461087f90611a5d565b80156108cc5780601f106108a1576101008083540402835291602001916108cc565b820191906000526020600020905b8154815290600101906020018083116108af57829003601f168201915b50505091835250506007919091015460ff161515602090910152826108f18884611a30565b8151811061090157610901611a47565b60200260200101819052508061091690611b0a565b9050610614565b506003549590945092505050565b33600090815260026020526040902060010154806109835760405162461bcd60e51b81526020600482015260156024820152744e6f20746f6b656e7320746f20776974686472617760581b60448201526064016103cd565b336000818152600260205260408082206001018290555190919082908181818181875af1925050503d80600081146109d7576040519150601f19603f3d011682016040523d82523d6000602084013e6109dc565b606091505b5050505050565b60006060816109f384600a6119fc565b6004549091508111610a055780610a09565b6004545b905080841115610a4b5760405162461bcd60e51b815260206004820152600d60248201526c0d2dcecc2d8d2c840d2dcc8caf609b1b60448201526064016103cd565b6000610a578583611a30565b67ffffffffffffffff811115610a6f57610a6f611556565b604051908082528060200260200182016040528015610acd57816020015b610aba604051806060016040528060006001600160a01b0316815260200160008152602001600081525090565b815260200190600190039081610a8d5790505b509050845b82811015610b75576002600060048381548110610af157610af1611a47565b60009182526020808320909101546001600160a01b039081168452838201949094526040928301909120825160608101845281549094168452600181015491840191909152600201549082015282610b498884611a30565b81518110610b5957610b59611a47565b602002602001018190525080610b6e90611b0a565b9050610ad2565b506004549590945092505050565b8051602081830181018051600182529282019190930120915280548190610ba990611a5d565b80601f0160208091040260200160405190810160405280929190818152602001828054610bd590611a5d565b8015610c225780601f10610bf757610100808354040283529160200191610c22565b820191906000526020600020905b815481529060010190602001808311610c0557829003601f168201915b50505060018401546002850154600386015460048701805496976001600160a01b039094169692955090935090610c5890611a5d565b80601f0160208091040260200160405190810160405280929190818152602001828054610c8490611a5d565b8015610cd15780601f10610ca657610100808354040283529160200191610cd1565b820191906000526020600020905b815481529060010190602001808311610cb457829003601f168201915b505050505090806005018054610ce690611a5d565b80601f0160208091040260200160405190810160405280929190818152602001828054610d1290611a5d565b8015610d5f5780601f10610d3457610100808354040283529160200191610d5f565b820191906000526020600020905b815481529060010190602001808311610d4257829003601f168201915b505050505090806006018054610d7490611a5d565b80601f0160208091040260200160405190810160405280929190818152602001828054610da090611a5d565b8015610ded5780601f10610dc257610100808354040283529160200191610ded565b820191906000526020600020905b815481529060010190602001808311610dd057829003601f168201915b5050506007909301549192505060ff1688565b610e0861142f565b600182604051610e189190611a14565b908152602001604051809103902060405180610100016040529081600082018054610e4290611a5d565b80601f0160208091040260200160405190810160405280929190818152602001828054610e6e90611a5d565b8015610ebb5780601f10610e9057610100808354040283529160200191610ebb565b820191906000526020600020905b815481529060010190602001808311610e9e57829003601f168201915b505050918352505060018201546001600160a01b031660208201526002820154604082015260038201546060820152600482018054608090920191610eff90611a5d565b80601f0160208091040260200160405190810160405280929190818152602001828054610f2b90611a5d565b8015610f785780601f10610f4d57610100808354040283529160200191610f78565b820191906000526020600020905b815481529060010190602001808311610f5b57829003601f168201915b50505050508152602001600582018054610f9190611a5d565b80601f0160208091040260200160405190810160405280929190818152602001828054610fbd90611a5d565b801561100a5780601f10610fdf5761010080835404028352916020019161100a565b820191906000526020600020905b815481529060010190602001808311610fed57829003601f168201915b5050505050815260200160068201805461102390611a5d565b80601f016020809104026020016040519081016040528092919081815260200182805461104f90611a5d565b801561109c5780601f106110715761010080835404028352916020019161109c565b820191906000526020600020905b81548152906001019060200180831161107f57829003601f168201915b50505091835250506007919091015460ff16151560209091015292915050565b6110c4611385565b6001600160a01b0381166111295760405162461bcd60e51b815260206004820152602660248201527f4f776e61626c653a206e6577206f776e657220697320746865207a65726f206160448201526564647265737360d01b60648201526084016103cd565b611132816113df565b50565b61113d611385565b60006001600160a01b03166001876040516111589190611a14565b908152604051908190036020019020600101546001600160a01b0316146111c15760405162461bcd60e51b815260206004820152601960248201527f44657669636520616c726561647920726567697374657265640000000000000060448201526064016103cd565b604051806101000160405280878152602001826001600160a01b03168152602001838152602001428152602001868152602001858152602001848152602001600115158152506001876040516112179190611a14565b9081526020016040518091039020600082015181600001908051906020019061124192919061147f565b506020828101516001830180546001600160a01b0319166001600160a01b03909216919091179055604083015160028301556060830151600383015560808301518051611294926004850192019061147f565b5060a082015180516112b091600584019160209091019061147f565b5060c082015180516112cc91600684019160209091019061147f565b5060e091909101516007909101805460ff191691151591909117905560038054600181018255600091909152865161132b917fc2575a0e9e593c00f959f8c92f12db2869c3395a3b0502d05e2516446f71f85b0190602089019061147f565b507fcc017e98c68153027b1a26f6232171af127eb16f5214f32ad41e4a1bc23b841660018760405161135d9190611a14565b90815260405190819003602001812061137591611b9c565b60405180910390a1505050505050565b6000546001600160a01b031633146105485760405162461bcd60e51b815260206004820181905260248201527f4f776e61626c653a2063616c6c6572206973206e6f7420746865206f776e657260448201526064016103cd565b600080546001600160a01b038381166001600160a01b0319831681178455604051919092169283917f8be0079c531659141344cd1fd0a4f28419497f9722a3daafe3b4186f6b6457e09190a35050565b6040518061010001604052806060815260200160006001600160a01b0316815260200160008152602001600081526020016060815260200160608152602001606081526020016000151581525090565b82805461148b90611a5d565b90600052602060002090601f0160209004810192826114ad57600085556114f3565b82601f106114c657805160ff19168380011785556114f3565b828001600101855582156114f3579182015b828111156114f35782518255916020019190600101906114d8565b506114ff929150611503565b5090565b5b808211156114ff5760008155600101611504565b80356001600160a01b038116811461152f57600080fd5b919050565b60006020828403121561154657600080fd5b61154f82611518565b9392505050565b634e487b7160e01b600052604160045260246000fd5b600082601f83011261157d57600080fd5b813567ffffffffffffffff8082111561159857611598611556565b604051601f8301601f19908116603f011681019082821181831017156115c0576115c0611556565b816040528381528660208588010111156115d957600080fd5b836020870160208301376000602085830101528094505050505092915050565b6000806040838503121561160c57600080fd5b823567ffffffffffffffff81111561162357600080fd5b61162f8582860161156c565b92505061163e60208401611518565b90509250929050565b60006020828403121561165957600080fd5b5035919050565b60005b8381101561167b578181015183820152602001611663565b8381111561168a576000848401525b50505050565b600081518084526116a8816020860160208601611660565b601f01601f19169290920160200192915050565b600061010082518185526116d282860182611690565b91505060208301516116ef60208601826001600160a01b03169052565b5060408301516040850152606083015160608501526080830151848203608086015261171b8282611690565b91505060a083015184820360a08601526117358282611690565b91505060c083015184820360c086015261174f8282611690565b91505060e083015161176560e086018215159052565b509392505050565b600060408201848352602060408185015281855180845260608601915060608160051b870101935082870160005b828110156117c957605f198887030184526117b78683516116bc565b9550928401929084019060010161179b565b509398975050505050505050565b600060408201848352602060408185015281855180845260609350838601915082870160005b8281101561183d5761182d84835180516001600160a01b0316825260208082015190830152604090810151910152565b92850192908401906001016117fd565b509198975050505050505050565b60006020828403121561185d57600080fd5b813567ffffffffffffffff81111561187457600080fd5b6118808482850161156c565b949350505050565b600061010080835261189c8184018c611690565b6001600160a01b038b166020850152604084018a905260608401899052838103608085015290506118cd8188611690565b905082810360a08401526118e18187611690565b905082810360c08401526118f58186611690565b91505082151560e08301529998505050505050505050565b60208152600061154f60208301846116bc565b60008060008060008060c0878903121561193957600080fd5b863567ffffffffffffffff8082111561195157600080fd5b61195d8a838b0161156c565b9750602089013591508082111561197357600080fd5b61197f8a838b0161156c565b9650604089013591508082111561199557600080fd5b6119a18a838b0161156c565b955060608901359150808211156119b757600080fd5b506119c489828a0161156c565b935050608087013591506119da60a08801611518565b90509295509295509295565b634e487b7160e01b600052601160045260246000fd5b60008219821115611a0f57611a0f6119e6565b500190565b60008251611a26818460208701611660565b9190910192915050565b600082821015611a4257611a426119e6565b500390565b634e487b7160e01b600052603260045260246000fd5b600181811c90821680611a7157607f821691505b60208210811415611a9257634e487b7160e01b600052602260045260246000fd5b50919050565b6000808354611aa681611a5d565b60018281168015611abe5760018114611acf57611afe565b60ff19841687528287019450611afe565b8760005260208060002060005b85811015611af55781548a820152908401908201611adc565b50505082870194505b50929695505050505050565b6000600019821415611b1e57611b1e6119e6565b5060010190565b60008154611b3281611a5d565b808552602060018381168015611b4f5760018114611b6357611b91565b60ff19851688840152604088019550611b91565b866000528260002060005b85811015611b895781548a8201860152908301908401611b6e565b890184019650505b505050505092915050565b602081526000610100806020840152611bb9610120840185611b25565b60018501546001600160a01b031660408501526002850154606085015260038501546080850152838103601f1990810160a0860152611bfb8260048801611b25565b9150808583030160c0860152611c148260058801611b25565b9150808583030160e086015250611c2e8160068701611b25565b9050611c3e600786015460ff1690565b151591909301525091905056fea2646970667358221220c027eaf76131007a4c00f9f13f00a5cef5c33ccaad2b0c979c959dbcb452798764736f6c63430008090033",
  "linkReferences": {},
  "deployedLinkReferences": {}
}